{
  "_format": "hh-sol-artifact-1",
  "contractName": "BookShelf",
  "sourceName": "contracts/BookShelf.sol",
  "abi": [
    {
      "inputs": [],
      "stateMutability": "payable",
      "type": "constructor"
    },
    {
      "anonymous": false,
      "inputs": [
        {
          "indexed": false,
          "internalType": "uint256",
          "name": "bookId",
          "type": "uint256"
        },
        {
          "indexed": false,
          "internalType": "address",
          "name": "buyer",
          "type": "address"
        }
      ],
      "name": "BookPurchased",
      "type": "event"
    },
    {
      "inputs": [],
      "name": "author",
      "outputs": [
        {
          "internalType": "address payable",
          "name": "",
          "type": "address"
        }
      ],
      "stateMutability": "view",
      "type": "function"
    },
    {
      "inputs": [
        {
          "internalType": "uint256",
          "name": "bookId",
          "type": "uint256"
        }
      ],
      "name": "buyBook",
      "outputs": [],
      "stateMutability": "payable",
      "type": "function"
    },
    {
      "inputs": [],
      "name": "getAuthorBooks",
      "outputs": [
        {
          "components": [
            {
              "internalType": "address",
              "name": "author",
              "type": "address"
            },
            {
              "internalType": "uint256",
              "name": "bookId",
              "type": "uint256"
            },
            {
              "internalType": "uint8",
              "name": "price",
              "type": "uint8"
            },
            {
              "internalType": "bytes",
              "name": "title",
              "type": "bytes"
            },
            {
              "internalType": "bytes",
              "name": "author_name",
              "type": "bytes"
            },
            {
              "internalType": "bytes",
              "name": "published_date",
              "type": "bytes"
            },
            {
              "internalType": "bytes",
              "name": "content",
              "type": "bytes"
            },
            {
              "internalType": "enum BookShelf.BookStatus",
              "name": "status",
              "type": "uint8"
            },
            {
              "internalType": "uint256",
              "name": "purchase_counter",
              "type": "uint256"
            }
          ],
          "internalType": "struct BookShelf.BookMetadata[]",
          "name": "",
          "type": "tuple[]"
        }
      ],
      "stateMutability": "view",
      "type": "function"
    },
    {
      "inputs": [
        {
          "internalType": "uint256",
          "name": "bookId",
          "type": "uint256"
        }
      ],
      "name": "getPurchasedBookData",
      "outputs": [
        {
          "components": [
            {
              "internalType": "address",
              "name": "author",
              "type": "address"
            },
            {
              "internalType": "uint256",
              "name": "bookId",
              "type": "uint256"
            },
            {
              "internalType": "uint8",
              "name": "price",
              "type": "uint8"
            },
            {
              "internalType": "bytes",
              "name": "title",
              "type": "bytes"
            },
            {
              "internalType": "bytes",
              "name": "author_name",
              "type": "bytes"
            },
            {
              "internalType": "bytes",
              "name": "published_date",
              "type": "bytes"
            },
            {
              "internalType": "bytes",
              "name": "content",
              "type": "bytes"
            },
            {
              "internalType": "enum BookShelf.BookStatus",
              "name": "status",
              "type": "uint8"
            },
            {
              "internalType": "uint256",
              "name": "purchase_counter",
              "type": "uint256"
            }
          ],
          "internalType": "struct BookShelf.BookMetadata",
          "name": "",
          "type": "tuple"
        }
      ],
      "stateMutability": "view",
      "type": "function"
    },
    {
      "inputs": [
        {
          "internalType": "string",
          "name": "title_",
          "type": "string"
        },
        {
          "internalType": "string",
          "name": "content_",
          "type": "string"
        },
        {
          "internalType": "string",
          "name": "authorname_",
          "type": "string"
        },
        {
          "internalType": "string",
          "name": "date_",
          "type": "string"
        },
        {
          "internalType": "uint256",
          "name": "purchase_counter_",
          "type": "uint256"
        },
        {
          "internalType": "uint8",
          "name": "price_",
          "type": "uint8"
        },
        {
          "internalType": "enum BookShelf.BookStatus",
          "name": "bookstatus_",
          "type": "uint8"
        }
      ],
      "name": "publishBook",
      "outputs": [],
      "stateMutability": "nonpayable",
      "type": "function"
    },
    {
      "inputs": [
        {
          "internalType": "uint256",
          "name": "bookId",
          "type": "uint256"
        },
        {
          "internalType": "uint256",
          "name": "newPurchaseCounter",
          "type": "uint256"
        }
      ],
      "name": "updateBookAvailability",
      "outputs": [],
      "stateMutability": "nonpayable",
      "type": "function"
    }
  ],
  "bytecode": "0x608060405233600260006101000a81548173ffffffffffffffffffffffffffffffffffffffff021916908373ffffffffffffffffffffffffffffffffffffffff16021790555061239b806100546000396000f3fe6080604052600436106100555760003560e01c8063092bbefa1461005a57806316d1d941146100975780636ee26566146100c2578063a6c3e6b9146100de578063aec689a614610109578063c8b237c214610132575b600080fd5b34801561006657600080fd5b50610081600480360381019061007c9190611441565b61015b565b60405161008e91906116bb565b60405180910390f35b3480156100a357600080fd5b506100ac610582565b6040516100b99190611879565b60405180910390f35b6100dc60048036038101906100d79190611441565b61094a565b005b3480156100ea57600080fd5b506100f3610dff565b60405161010091906118bc565b60405180910390f35b34801561011557600080fd5b50610130600480360381019061012b91906118d7565b610e25565b005b34801561013e57600080fd5b5061015960048036038101906101549190611a9d565b611042565b005b610163611380565b6000821180156101d65750600080600260009054906101000a900473ffffffffffffffffffffffffffffffffffffffff1673ffffffffffffffffffffffffffffffffffffffff1673ffffffffffffffffffffffffffffffffffffffff168152602001908152602001600020805490508211155b610215576040517f08c379a000000000000000000000000000000000000000000000000000000000815260040161020c90611c0c565b60405180910390fd5b600160003373ffffffffffffffffffffffffffffffffffffffff1673ffffffffffffffffffffffffffffffffffffffff1681526020019081526020016000206000838152602001908152602001600020604051806101200160405290816000820160009054906101000a900473ffffffffffffffffffffffffffffffffffffffff1673ffffffffffffffffffffffffffffffffffffffff1673ffffffffffffffffffffffffffffffffffffffff168152602001600182015481526020016002820160009054906101000a900460ff1660ff1660ff1681526020016003820180546102fe90611c5b565b80601f016020809104026020016040519081016040528092919081815260200182805461032a90611c5b565b80156103775780601f1061034c57610100808354040283529160200191610377565b820191906000526020600020905b81548152906001019060200180831161035a57829003601f168201915b5050505050815260200160048201805461039090611c5b565b80601f01602080910402602001604051908101604052809291908181526020018280546103bc90611c5b565b80156104095780601f106103de57610100808354040283529160200191610409565b820191906000526020600020905b8154815290600101906020018083116103ec57829003601f168201915b5050505050815260200160058201805461042290611c5b565b80601f016020809104026020016040519081016040528092919081815260200182805461044e90611c5b565b801561049b5780601f106104705761010080835404028352916020019161049b565b820191906000526020600020905b81548152906001019060200180831161047e57829003601f168201915b505050505081526020016006820180546104b490611c5b565b80601f01602080910402602001604051908101604052809291908181526020018280546104e090611c5b565b801561052d5780601f106105025761010080835404028352916020019161052d565b820191906000526020600020905b81548152906001019060200180831161051057829003601f168201915b505050505081526020016007820160009054906101000a900460ff16600181111561055b5761055a61156a565b5b600181111561056d5761056c61156a565b5b81526020016008820154815250509050919050565b6060600080600260009054906101000a900473ffffffffffffffffffffffffffffffffffffffff1673ffffffffffffffffffffffffffffffffffffffff1673ffffffffffffffffffffffffffffffffffffffff168152602001908152602001600020805480602002602001604051908101604052809291908181526020016000905b828210156109415783829060005260206000209060090201604051806101200160405290816000820160009054906101000a900473ffffffffffffffffffffffffffffffffffffffff1673ffffffffffffffffffffffffffffffffffffffff1673ffffffffffffffffffffffffffffffffffffffff168152602001600182015481526020016002820160009054906101000a900460ff1660ff1660ff1681526020016003820180546106b590611c5b565b80601f01602080910402602001604051908101604052809291908181526020018280546106e190611c5b565b801561072e5780601f106107035761010080835404028352916020019161072e565b820191906000526020600020905b81548152906001019060200180831161071157829003601f168201915b5050505050815260200160048201805461074790611c5b565b80601f016020809104026020016040519081016040528092919081815260200182805461077390611c5b565b80156107c05780601f10610795576101008083540402835291602001916107c0565b820191906000526020600020905b8154815290600101906020018083116107a357829003601f168201915b505050505081526020016005820180546107d990611c5b565b80601f016020809104026020016040519081016040528092919081815260200182805461080590611c5b565b80156108525780601f1061082757610100808354040283529160200191610852565b820191906000526020600020905b81548152906001019060200180831161083557829003601f168201915b5050505050815260200160068201805461086b90611c5b565b80601f016020809104026020016040519081016040528092919081815260200182805461089790611c5b565b80156108e45780601f106108b9576101008083540402835291602001916108e4565b820191906000526020600020905b8154815290600101906020018083116108c757829003601f168201915b505050505081526020016007820160009054906101000a900460ff1660018111156109125761091161156a565b5b60018111156109245761092361156a565b5b815260200160088201548152505081526020019060010190610604565b50505050905090565b6000811180156109bd5750600080600260009054906101000a900473ffffffffffffffffffffffffffffffffffffffff1673ffffffffffffffffffffffffffffffffffffffff1673ffffffffffffffffffffffffffffffffffffffff168152602001908152602001600020805490508111155b6109fc576040517f08c379a00000000000000000000000000000000000000000000000000000000081526004016109f390611c0c565b60405180910390fd5b6000806000600260009054906101000a900473ffffffffffffffffffffffffffffffffffffffff1673ffffffffffffffffffffffffffffffffffffffff1673ffffffffffffffffffffffffffffffffffffffff168152602001908152602001600020600183610a6b9190611cbb565b81548110610a7c57610a7b611cef565b5b90600052602060002090600902019050600180811115610a9f57610a9e61156a565b5b8160070160009054906101000a900460ff166001811115610ac357610ac261156a565b5b14610b03576040517f08c379a0000000000000000000000000000000000000000000000000000000008152600401610afa90611d6a565b60405180910390fd5b670de0b6b3a76400008160020160009054906101000a900460ff1660ff16610b2b9190611d9e565b67ffffffffffffffff16341015610b77576040517f08c379a0000000000000000000000000000000000000000000000000000000008152600401610b6e90611e27565b60405180910390fd5b806008016000815480929190610b8c90611e47565b91905055506000816008015403610bcb5760008160070160006101000a81548160ff02191690836001811115610bc557610bc461156a565b5b02179055505b600260009054906101000a900473ffffffffffffffffffffffffffffffffffffffff1673ffffffffffffffffffffffffffffffffffffffff166108fc349081150290604051600060405180830381858888f19350505050158015610c33573d6000803e3d6000fd5b5080600160003373ffffffffffffffffffffffffffffffffffffffff1673ffffffffffffffffffffffffffffffffffffffff16815260200190815260200160002060008481526020019081526020016000206000820160009054906101000a900473ffffffffffffffffffffffffffffffffffffffff168160000160006101000a81548173ffffffffffffffffffffffffffffffffffffffff021916908373ffffffffffffffffffffffffffffffffffffffff160217905550600182015481600101556002820160009054906101000a900460ff168160020160006101000a81548160ff021916908360ff16021790555060038201816003019081610d389190612032565b5060048201816004019081610d4d9190612032565b5060058201816005019081610d629190612032565b5060068201816006019081610d779190612032565b506007820160009054906101000a900460ff168160070160006101000a81548160ff02191690836001811115610db057610daf61156a565b5b0217905550600882015481600801559050507f419fc6819b8320f8731290b326a756bfd06fc875daf29721fe059dedd1937ef68233604051610df3929190612138565b60405180910390a15050565b600260009054906101000a900473ffffffffffffffffffffffffffffffffffffffff1681565b600260009054906101000a900473ffffffffffffffffffffffffffffffffffffffff1673ffffffffffffffffffffffffffffffffffffffff163373ffffffffffffffffffffffffffffffffffffffff1614610eb5576040517f08c379a0000000000000000000000000000000000000000000000000000000008152600401610eac906121d3565b60405180910390fd5b600082118015610f285750600080600260009054906101000a900473ffffffffffffffffffffffffffffffffffffffff1673ffffffffffffffffffffffffffffffffffffffff1673ffffffffffffffffffffffffffffffffffffffff168152602001908152602001600020805490508211155b610f67576040517f08c379a0000000000000000000000000000000000000000000000000000000008152600401610f5e90611c0c565b60405180910390fd5b6000806000600260009054906101000a900473ffffffffffffffffffffffffffffffffffffffff1673ffffffffffffffffffffffffffffffffffffffff1673ffffffffffffffffffffffffffffffffffffffff168152602001908152602001600020600184610fd69190611cbb565b81548110610fe757610fe6611cef565b5b906000526020600020906009020190508181600801819055506000821161100f576000611012565b60015b8160070160006101000a81548160ff021916908360018111156110385761103761156a565b5b0217905550505050565b600260009054906101000a900473ffffffffffffffffffffffffffffffffffffffff1673ffffffffffffffffffffffffffffffffffffffff163373ffffffffffffffffffffffffffffffffffffffff16146110d2576040517f08c379a00000000000000000000000000000000000000000000000000000000081526004016110c99061223f565b60405180910390fd5b60006001600080600260009054906101000a900473ffffffffffffffffffffffffffffffffffffffff1673ffffffffffffffffffffffffffffffffffffffff1673ffffffffffffffffffffffffffffffffffffffff16815260200190815260200160002080549050611144919061225f565b90506000840361115357600091505b6000604051806101200160405280600260009054906101000a900473ffffffffffffffffffffffffffffffffffffffff1673ffffffffffffffffffffffffffffffffffffffff1681526020018381526020018560ff1681526020018a81526020018881526020018781526020018981526020018460018111156111d9576111d861156a565b5b8152602001868152509050600080600260009054906101000a900473ffffffffffffffffffffffffffffffffffffffff1673ffffffffffffffffffffffffffffffffffffffff1673ffffffffffffffffffffffffffffffffffffffff16815260200190815260200160002081908060018154018082558091505060019003906000526020600020906009020160009091909190915060008201518160000160006101000a81548173ffffffffffffffffffffffffffffffffffffffff021916908373ffffffffffffffffffffffffffffffffffffffff1602179055506020820151816001015560408201518160020160006101000a81548160ff021916908360ff16021790555060608201518160030190816112f59190612293565b50608082015181600401908161130b9190612293565b5060a08201518160050190816113219190612293565b5060c08201518160060190816113379190612293565b5060e08201518160070160006101000a81548160ff021916908360018111156113635761136261156a565b5b021790555061010082015181600801555050505050505050505050565b604051806101200160405280600073ffffffffffffffffffffffffffffffffffffffff16815260200160008152602001600060ff16815260200160608152602001606081526020016060815260200160608152602001600060018111156113ea576113e961156a565b5b8152602001600081525090565b6000604051905090565b600080fd5b600080fd5b6000819050919050565b61141e8161140b565b811461142957600080fd5b50565b60008135905061143b81611415565b92915050565b60006020828403121561145757611456611401565b5b60006114658482850161142c565b91505092915050565b600073ffffffffffffffffffffffffffffffffffffffff82169050919050565b60006114998261146e565b9050919050565b6114a98161148e565b82525050565b6114b88161140b565b82525050565b600060ff82169050919050565b6114d4816114be565b82525050565b600081519050919050565b600082825260208201905092915050565b60005b838110156115145780820151818401526020810190506114f9565b60008484015250505050565b6000601f19601f8301169050919050565b600061153c826114da565b61154681856114e5565b93506115568185602086016114f6565b61155f81611520565b840191505092915050565b7f4e487b7100000000000000000000000000000000000000000000000000000000600052602160045260246000fd5b600281106115aa576115a961156a565b5b50565b60008190506115bb82611599565b919050565b60006115cb826115ad565b9050919050565b6115db816115c0565b82525050565b6000610120830160008301516115fa60008601826114a0565b50602083015161160d60208601826114af565b50604083015161162060408601826114cb565b50606083015184820360608601526116388282611531565b915050608083015184820360808601526116528282611531565b91505060a083015184820360a086015261166c8282611531565b91505060c083015184820360c08601526116868282611531565b91505060e083015161169b60e08601826115d2565b506101008301516116b06101008601826114af565b508091505092915050565b600060208201905081810360008301526116d581846115e1565b905092915050565b600081519050919050565b600082825260208201905092915050565b6000819050602082019050919050565b60006101208301600083015161172260008601826114a0565b50602083015161173560208601826114af565b50604083015161174860408601826114cb565b50606083015184820360608601526117608282611531565b9150506080830151848203608086015261177a8282611531565b91505060a083015184820360a08601526117948282611531565b91505060c083015184820360c08601526117ae8282611531565b91505060e08301516117c360e08601826115d2565b506101008301516117d86101008601826114af565b508091505092915050565b60006117ef8383611709565b905092915050565b6000602082019050919050565b600061180f826116dd565b61181981856116e8565b93508360208202850161182b856116f9565b8060005b85811015611867578484038952815161184885826117e3565b9450611853836117f7565b925060208a0199505060018101905061182f565b50829750879550505050505092915050565b600060208201905081810360008301526118938184611804565b905092915050565b60006118a68261146e565b9050919050565b6118b68161189b565b82525050565b60006020820190506118d160008301846118ad565b92915050565b600080604083850312156118ee576118ed611401565b5b60006118fc8582860161142c565b925050602061190d8582860161142c565b9150509250929050565b600080fd5b600080fd5b7f4e487b7100000000000000000000000000000000000000000000000000000000600052604160045260246000fd5b61195982611520565b810181811067ffffffffffffffff8211171561197857611977611921565b5b80604052505050565b600061198b6113f7565b90506119978282611950565b919050565b600067ffffffffffffffff8211156119b7576119b6611921565b5b6119c082611520565b9050602081019050919050565b82818337600083830152505050565b60006119ef6119ea8461199c565b611981565b905082815260208101848484011115611a0b57611a0a61191c565b5b611a168482856119cd565b509392505050565b600082601f830112611a3357611a32611917565b5b8135611a438482602086016119dc565b91505092915050565b611a55816114be565b8114611a6057600080fd5b50565b600081359050611a7281611a4c565b92915050565b60028110611a8557600080fd5b50565b600081359050611a9781611a78565b92915050565b600080600080600080600060e0888a031215611abc57611abb611401565b5b600088013567ffffffffffffffff811115611ada57611ad9611406565b5b611ae68a828b01611a1e565b975050602088013567ffffffffffffffff811115611b0757611b06611406565b5b611b138a828b01611a1e565b965050604088013567ffffffffffffffff811115611b3457611b33611406565b5b611b408a828b01611a1e565b955050606088013567ffffffffffffffff811115611b6157611b60611406565b5b611b6d8a828b01611a1e565b9450506080611b7e8a828b0161142c565b93505060a0611b8f8a828b01611a63565b92505060c0611ba08a828b01611a88565b91505092959891949750929550565b600082825260208201905092915050565b7f496e76616c696420626f6f6b2049440000000000000000000000000000000000600082015250565b6000611bf6600f83611baf565b9150611c0182611bc0565b602082019050919050565b60006020820190508181036000830152611c2581611be9565b9050919050565b7f4e487b7100000000000000000000000000000000000000000000000000000000600052602260045260246000fd5b60006002820490506001821680611c7357607f821691505b602082108103611c8657611c85611c2c565b5b50919050565b7f4e487b7100000000000000000000000000000000000000000000000000000000600052601160045260246000fd5b6000611cc68261140b565b9150611cd18361140b565b9250828203905081811115611ce957611ce8611c8c565b5b92915050565b7f4e487b7100000000000000000000000000000000000000000000000000000000600052603260045260246000fd5b7f426f6f6b206973206e6f7420617661696c61626c650000000000000000000000600082015250565b6000611d54601583611baf565b9150611d5f82611d1e565b602082019050919050565b60006020820190508181036000830152611d8381611d47565b9050919050565b600067ffffffffffffffff82169050919050565b6000611da982611d8a565b9150611db483611d8a565b9250828202611dc281611d8a565b9150808214611dd457611dd3611c8c565b5b5092915050565b7f496e73756666696369656e74207061796d656e74000000000000000000000000600082015250565b6000611e11601483611baf565b9150611e1c82611ddb565b602082019050919050565b60006020820190508181036000830152611e4081611e04565b9050919050565b6000611e528261140b565b915060008203611e6557611e64611c8c565b5b600182039050919050565b600081549050611e7f81611c5b565b9050919050565b60008190508160005260206000209050919050565b60006020601f8301049050919050565b600082821b905092915050565b600060088302611ee87fffffffffffffffffffffffffffffffffffffffffffffffffffffffffffffffff82611eab565b611ef28683611eab565b95508019841693508086168417925050509392505050565b6000819050919050565b6000611f2f611f2a611f258461140b565b611f0a565b61140b565b9050919050565b6000819050919050565b611f4983611f14565b611f5d611f5582611f36565b848454611eb8565b825550505050565b600090565b611f72611f65565b611f7d818484611f40565b505050565b5b81811015611fa157611f96600082611f6a565b600181019050611f83565b5050565b601f821115611fe657611fb781611e86565b611fc084611e9b565b81016020851015611fcf578190505b611fe3611fdb85611e9b565b830182611f82565b50505b505050565b600082821c905092915050565b600061200960001984600802611feb565b1980831691505092915050565b60006120228383611ff8565b9150826002028217905092915050565b818103612040575050612118565b61204982611e70565b67ffffffffffffffff81111561206257612061611921565b5b61206c8254611c5b565b612077828285611fa5565b6000601f8311600181146120a65760008415612094578287015490505b61209e8582612016565b865550612111565b601f1984166120b487611e86565b96506120bf86611e86565b60005b828110156120e7578489015482556001820191506001850194506020810190506120c2565b868310156121045784890154612100601f891682611ff8565b8355505b6001600288020188555050505b5050505050505b565b6121238161140b565b82525050565b6121328161148e565b82525050565b600060408201905061214d600083018561211a565b61215a6020830184612129565b9392505050565b7f4f6e6c7920617574686f722063616e2075706461746520626f6f6b206176616960008201527f6c6162696c697479000000000000000000000000000000000000000000000000602082015250565b60006121bd602883611baf565b91506121c882612161565b604082019050919050565b600060208201905081810360008301526121ec816121b0565b9050919050565b7f4f6e6c7920617574686f722063616e207075626c69736820626f6f6b73000000600082015250565b6000612229601d83611baf565b9150612234826121f3565b602082019050919050565b600060208201905081810360008301526122588161221c565b9050919050565b600061226a8261140b565b91506122758361140b565b925082820190508082111561228d5761228c611c8c565b5b92915050565b61229c826114da565b67ffffffffffffffff8111156122b5576122b4611921565b5b6122bf8254611c5b565b6122ca828285611fa5565b600060209050601f8311600181146122fd57600084156122eb578287015190505b6122f58582612016565b86555061235d565b601f19841661230b86611e86565b60005b828110156123335784890151825560018201915060208501945060208101905061230e565b86831015612350578489015161234c601f891682611ff8565b8355505b6001600288020188555050505b50505050505056fea2646970667358221220e799bdaeafe8e5cfa407c7859aff5eadeafe302dd4ecf2da6a2e3b1dcf2b35e964736f6c63430008180033",
  "linkReferences": {},
  "deployedLinkReferences": {}
}