{
  "_format": "hh-sol-artifact-1",
  "contractName": "BookShelf",
  "sourceName": "contracts/BookShelf.sol",
  "abi": [
    {
      "inputs": [],
      "stateMutability": "payable",
      "type": "constructor"
    },
    {
      "anonymous": false,
      "inputs": [
        {
          "indexed": false,
          "internalType": "uint256",
          "name": "bookId",
          "type": "uint256"
        },
        {
          "indexed": false,
          "internalType": "address",
          "name": "buyer",
          "type": "address"
        }
      ],
      "name": "BookPurchased",
      "type": "event"
    },
    {
      "inputs": [],
      "name": "author",
      "outputs": [
        {
          "internalType": "address payable",
          "name": "",
          "type": "address"
        }
      ],
      "stateMutability": "view",
      "type": "function"
    },
    {
      "inputs": [
        {
          "internalType": "uint256",
          "name": "bookId",
          "type": "uint256"
        }
      ],
      "name": "buyBook",
      "outputs": [],
      "stateMutability": "payable",
      "type": "function"
    },
    {
      "inputs": [],
      "name": "getAuthorBooks",
      "outputs": [
        {
          "components": [
            {
              "internalType": "address",
              "name": "author",
              "type": "address"
            },
            {
              "internalType": "uint256",
              "name": "bookId",
              "type": "uint256"
            },
            {
              "internalType": "uint8",
              "name": "price",
              "type": "uint8"
            },
            {
              "internalType": "bytes",
              "name": "title",
              "type": "bytes"
            },
            {
              "internalType": "bytes",
              "name": "author_name",
              "type": "bytes"
            },
            {
              "internalType": "bytes",
              "name": "published_date",
              "type": "bytes"
            },
            {
              "internalType": "bytes",
              "name": "content",
              "type": "bytes"
            },
            {
              "internalType": "enum BookShelf.BookStatus",
              "name": "status",
              "type": "uint8"
            },
            {
              "internalType": "uint256",
              "name": "purchase_counter",
              "type": "uint256"
            }
          ],
          "internalType": "struct BookShelf.BookMetadata[]",
          "name": "",
          "type": "tuple[]"
        }
      ],
      "stateMutability": "view",
      "type": "function"
    },
    {
      "inputs": [
        {
          "internalType": "string",
          "name": "title_",
          "type": "string"
        },
        {
          "internalType": "string",
          "name": "content_",
          "type": "string"
        },
        {
          "internalType": "string",
          "name": "authorname_",
          "type": "string"
        },
        {
          "internalType": "string",
          "name": "date_",
          "type": "string"
        },
        {
          "internalType": "uint256",
          "name": "purchase_counter_",
          "type": "uint256"
        },
        {
          "internalType": "uint8",
          "name": "price_",
          "type": "uint8"
        },
        {
          "internalType": "enum BookShelf.BookStatus",
          "name": "bookstatus_",
          "type": "uint8"
        }
      ],
      "name": "publishBook",
      "outputs": [],
      "stateMutability": "nonpayable",
      "type": "function"
    },
    {
      "inputs": [
        {
          "internalType": "uint256",
          "name": "bookId",
          "type": "uint256"
        },
        {
          "internalType": "uint256",
          "name": "newPurchaseCounter",
          "type": "uint256"
        }
      ],
      "name": "updateBookAvailability",
      "outputs": [],
      "stateMutability": "nonpayable",
      "type": "function"
    }
  ],
  "bytecode": "0x608060405233600160006101000a81548173ffffffffffffffffffffffffffffffffffffffff021916908373ffffffffffffffffffffffffffffffffffffffff160217905550611b2d806100546000396000f3fe60806040526004361061004a5760003560e01c806316d1d9411461004f5780636ee265661461007a578063a6c3e6b914610096578063aec689a6146100c1578063c8b237c2146100ea575b600080fd5b34801561005b57600080fd5b50610064610113565b604051610071919061109c565b60405180910390f35b610094600480360381019061008f91906110fe565b6104db565b005b3480156100a257600080fd5b506100ab610802565b6040516100b8919061114c565b60405180910390f35b3480156100cd57600080fd5b506100e860048036038101906100e39190611167565b610828565b005b3480156100f657600080fd5b50610111600480360381019061010c919061132d565b610a45565b005b6060600080600160009054906101000a900473ffffffffffffffffffffffffffffffffffffffff1673ffffffffffffffffffffffffffffffffffffffff1673ffffffffffffffffffffffffffffffffffffffff168152602001908152602001600020805480602002602001604051908101604052809291908181526020016000905b828210156104d25783829060005260206000209060090201604051806101200160405290816000820160009054906101000a900473ffffffffffffffffffffffffffffffffffffffff1673ffffffffffffffffffffffffffffffffffffffff1673ffffffffffffffffffffffffffffffffffffffff168152602001600182015481526020016002820160009054906101000a900460ff1660ff1660ff1681526020016003820180546102469061146e565b80601f01602080910402602001604051908101604052809291908181526020018280546102729061146e565b80156102bf5780601f10610294576101008083540402835291602001916102bf565b820191906000526020600020905b8154815290600101906020018083116102a257829003601f168201915b505050505081526020016004820180546102d89061146e565b80601f01602080910402602001604051908101604052809291908181526020018280546103049061146e565b80156103515780601f1061032657610100808354040283529160200191610351565b820191906000526020600020905b81548152906001019060200180831161033457829003601f168201915b5050505050815260200160058201805461036a9061146e565b80601f01602080910402602001604051908101604052809291908181526020018280546103969061146e565b80156103e35780601f106103b8576101008083540402835291602001916103e3565b820191906000526020600020905b8154815290600101906020018083116103c657829003601f168201915b505050505081526020016006820180546103fc9061146e565b80601f01602080910402602001604051908101604052809291908181526020018280546104289061146e565b80156104755780601f1061044a57610100808354040283529160200191610475565b820191906000526020600020905b81548152906001019060200180831161045857829003601f168201915b505050505081526020016007820160009054906101000a900460ff1660018111156104a3576104a2610eb5565b5b60018111156104b5576104b4610eb5565b5b815260200160088201548152505081526020019060010190610195565b50505050905090565b60008111801561054e5750600080600160009054906101000a900473ffffffffffffffffffffffffffffffffffffffff1673ffffffffffffffffffffffffffffffffffffffff1673ffffffffffffffffffffffffffffffffffffffff168152602001908152602001600020805490508111155b61058d576040517f08c379a0000000000000000000000000000000000000000000000000000000008152600401610584906114fc565b60405180910390fd5b6000806000600160009054906101000a900473ffffffffffffffffffffffffffffffffffffffff1673ffffffffffffffffffffffffffffffffffffffff1673ffffffffffffffffffffffffffffffffffffffff1681526020019081526020016000206001836105fc919061154b565b8154811061060d5761060c61157f565b5b906000526020600020906009020190506001808111156106305761062f610eb5565b5b8160070160009054906101000a900460ff16600181111561065457610653610eb5565b5b14610694576040517f08c379a000000000000000000000000000000000000000000000000000000000815260040161068b906115fa565b60405180910390fd5b670de0b6b3a76400008160020160009054906101000a900460ff1660ff166106bc919061162e565b67ffffffffffffffff16341015610708576040517f08c379a00000000000000000000000000000000000000000000000000000000081526004016106ff906116b7565b60405180910390fd5b80600801600081548092919061071d906116d7565b9190505550600081600801540361075c5760008160070160006101000a81548160ff0219169083600181111561075657610755610eb5565b5b02179055505b600160009054906101000a900473ffffffffffffffffffffffffffffffffffffffff1673ffffffffffffffffffffffffffffffffffffffff166108fc349081150290604051600060405180830381858888f193505050501580156107c4573d6000803e3d6000fd5b507f419fc6819b8320f8731290b326a756bfd06fc875daf29721fe059dedd1937ef682336040516107f692919061171e565b60405180910390a15050565b600160009054906101000a900473ffffffffffffffffffffffffffffffffffffffff1681565b600160009054906101000a900473ffffffffffffffffffffffffffffffffffffffff1673ffffffffffffffffffffffffffffffffffffffff163373ffffffffffffffffffffffffffffffffffffffff16146108b8576040517f08c379a00000000000000000000000000000000000000000000000000000000081526004016108af906117b9565b60405180910390fd5b60008211801561092b5750600080600160009054906101000a900473ffffffffffffffffffffffffffffffffffffffff1673ffffffffffffffffffffffffffffffffffffffff1673ffffffffffffffffffffffffffffffffffffffff168152602001908152602001600020805490508211155b61096a576040517f08c379a0000000000000000000000000000000000000000000000000000000008152600401610961906114fc565b60405180910390fd5b6000806000600160009054906101000a900473ffffffffffffffffffffffffffffffffffffffff1673ffffffffffffffffffffffffffffffffffffffff1673ffffffffffffffffffffffffffffffffffffffff1681526020019081526020016000206001846109d9919061154b565b815481106109ea576109e961157f565b5b9060005260206000209060090201905081816008018190555060008211610a12576000610a15565b60015b8160070160006101000a81548160ff02191690836001811115610a3b57610a3a610eb5565b5b0217905550505050565b600160009054906101000a900473ffffffffffffffffffffffffffffffffffffffff1673ffffffffffffffffffffffffffffffffffffffff163373ffffffffffffffffffffffffffffffffffffffff1614610ad5576040517f08c379a0000000000000000000000000000000000000000000000000000000008152600401610acc90611825565b60405180910390fd5b60006001600080600160009054906101000a900473ffffffffffffffffffffffffffffffffffffffff1673ffffffffffffffffffffffffffffffffffffffff1673ffffffffffffffffffffffffffffffffffffffff16815260200190815260200160002080549050610b479190611845565b905060008403610b5657600091505b6000604051806101200160405280600160009054906101000a900473ffffffffffffffffffffffffffffffffffffffff1673ffffffffffffffffffffffffffffffffffffffff1681526020018381526020018560ff1681526020018a8152602001888152602001878152602001898152602001846001811115610bdc57610bdb610eb5565b5b8152602001868152509050600080600160009054906101000a900473ffffffffffffffffffffffffffffffffffffffff1673ffffffffffffffffffffffffffffffffffffffff1673ffffffffffffffffffffffffffffffffffffffff16815260200190815260200160002081908060018154018082558091505060019003906000526020600020906009020160009091909190915060008201518160000160006101000a81548173ffffffffffffffffffffffffffffffffffffffff021916908373ffffffffffffffffffffffffffffffffffffffff1602179055506020820151816001015560408201518160020160006101000a81548160ff021916908360ff1602179055506060820151816003019081610cf89190611a25565b506080820151816004019081610d0e9190611a25565b5060a0820151816005019081610d249190611a25565b5060c0820151816006019081610d3a9190611a25565b5060e08201518160070160006101000a81548160ff02191690836001811115610d6657610d65610eb5565b5b021790555061010082015181600801555050505050505050505050565b600081519050919050565b600082825260208201905092915050565b6000819050602082019050919050565b600073ffffffffffffffffffffffffffffffffffffffff82169050919050565b6000610dda82610daf565b9050919050565b610dea81610dcf565b82525050565b6000819050919050565b610e0381610df0565b82525050565b600060ff82169050919050565b610e1f81610e09565b82525050565b600081519050919050565b600082825260208201905092915050565b60005b83811015610e5f578082015181840152602081019050610e44565b60008484015250505050565b6000601f19601f8301169050919050565b6000610e8782610e25565b610e918185610e30565b9350610ea1818560208601610e41565b610eaa81610e6b565b840191505092915050565b7f4e487b7100000000000000000000000000000000000000000000000000000000600052602160045260246000fd5b60028110610ef557610ef4610eb5565b5b50565b6000819050610f0682610ee4565b919050565b6000610f1682610ef8565b9050919050565b610f2681610f0b565b82525050565b600061012083016000830151610f456000860182610de1565b506020830151610f586020860182610dfa565b506040830151610f6b6040860182610e16565b5060608301518482036060860152610f838282610e7c565b91505060808301518482036080860152610f9d8282610e7c565b91505060a083015184820360a0860152610fb78282610e7c565b91505060c083015184820360c0860152610fd18282610e7c565b91505060e0830151610fe660e0860182610f1d565b50610100830151610ffb610100860182610dfa565b508091505092915050565b60006110128383610f2c565b905092915050565b6000602082019050919050565b600061103282610d83565b61103c8185610d8e565b93508360208202850161104e85610d9f565b8060005b8581101561108a578484038952815161106b8582611006565b94506110768361101a565b925060208a01995050600181019050611052565b50829750879550505050505092915050565b600060208201905081810360008301526110b68184611027565b905092915050565b6000604051905090565b600080fd5b600080fd5b6110db81610df0565b81146110e657600080fd5b50565b6000813590506110f8816110d2565b92915050565b600060208284031215611114576111136110c8565b5b6000611122848285016110e9565b91505092915050565b600061113682610daf565b9050919050565b6111468161112b565b82525050565b6000602082019050611161600083018461113d565b92915050565b6000806040838503121561117e5761117d6110c8565b5b600061118c858286016110e9565b925050602061119d858286016110e9565b9150509250929050565b600080fd5b600080fd5b7f4e487b7100000000000000000000000000000000000000000000000000000000600052604160045260246000fd5b6111e982610e6b565b810181811067ffffffffffffffff82111715611208576112076111b1565b5b80604052505050565b600061121b6110be565b905061122782826111e0565b919050565b600067ffffffffffffffff821115611247576112466111b1565b5b61125082610e6b565b9050602081019050919050565b82818337600083830152505050565b600061127f61127a8461122c565b611211565b90508281526020810184848401111561129b5761129a6111ac565b5b6112a684828561125d565b509392505050565b600082601f8301126112c3576112c26111a7565b5b81356112d384826020860161126c565b91505092915050565b6112e581610e09565b81146112f057600080fd5b50565b600081359050611302816112dc565b92915050565b6002811061131557600080fd5b50565b60008135905061132781611308565b92915050565b600080600080600080600060e0888a03121561134c5761134b6110c8565b5b600088013567ffffffffffffffff81111561136a576113696110cd565b5b6113768a828b016112ae565b975050602088013567ffffffffffffffff811115611397576113966110cd565b5b6113a38a828b016112ae565b965050604088013567ffffffffffffffff8111156113c4576113c36110cd565b5b6113d08a828b016112ae565b955050606088013567ffffffffffffffff8111156113f1576113f06110cd565b5b6113fd8a828b016112ae565b945050608061140e8a828b016110e9565b93505060a061141f8a828b016112f3565b92505060c06114308a828b01611318565b91505092959891949750929550565b7f4e487b7100000000000000000000000000000000000000000000000000000000600052602260045260246000fd5b6000600282049050600182168061148657607f821691505b6020821081036114995761149861143f565b5b50919050565b600082825260208201905092915050565b7f496e76616c696420626f6f6b2049440000000000000000000000000000000000600082015250565b60006114e6600f8361149f565b91506114f1826114b0565b602082019050919050565b60006020820190508181036000830152611515816114d9565b9050919050565b7f4e487b7100000000000000000000000000000000000000000000000000000000600052601160045260246000fd5b600061155682610df0565b915061156183610df0565b92508282039050818111156115795761157861151c565b5b92915050565b7f4e487b7100000000000000000000000000000000000000000000000000000000600052603260045260246000fd5b7f426f6f6b206973206e6f7420617661696c61626c650000000000000000000000600082015250565b60006115e460158361149f565b91506115ef826115ae565b602082019050919050565b60006020820190508181036000830152611613816115d7565b9050919050565b600067ffffffffffffffff82169050919050565b60006116398261161a565b91506116448361161a565b92508282026116528161161a565b91508082146116645761166361151c565b5b5092915050565b7f496e73756666696369656e74207061796d656e74000000000000000000000000600082015250565b60006116a160148361149f565b91506116ac8261166b565b602082019050919050565b600060208201905081810360008301526116d081611694565b9050919050565b60006116e282610df0565b9150600082036116f5576116f461151c565b5b600182039050919050565b61170981610df0565b82525050565b61171881610dcf565b82525050565b60006040820190506117336000830185611700565b611740602083018461170f565b9392505050565b7f4f6e6c7920617574686f722063616e2075706461746520626f6f6b206176616960008201527f6c6162696c697479000000000000000000000000000000000000000000000000602082015250565b60006117a360288361149f565b91506117ae82611747565b604082019050919050565b600060208201905081810360008301526117d281611796565b9050919050565b7f4f6e6c7920617574686f722063616e207075626c69736820626f6f6b73000000600082015250565b600061180f601d8361149f565b915061181a826117d9565b602082019050919050565b6000602082019050818103600083015261183e81611802565b9050919050565b600061185082610df0565b915061185b83610df0565b92508282019050808211156118735761187261151c565b5b92915050565b60008190508160005260206000209050919050565b60006020601f8301049050919050565b600082821b905092915050565b6000600883026118db7fffffffffffffffffffffffffffffffffffffffffffffffffffffffffffffffff8261189e565b6118e5868361189e565b95508019841693508086168417925050509392505050565b6000819050919050565b600061192261191d61191884610df0565b6118fd565b610df0565b9050919050565b6000819050919050565b61193c83611907565b61195061194882611929565b8484546118ab565b825550505050565b600090565b611965611958565b611970818484611933565b505050565b5b818110156119945761198960008261195d565b600181019050611976565b5050565b601f8211156119d9576119aa81611879565b6119b38461188e565b810160208510156119c2578190505b6119d66119ce8561188e565b830182611975565b50505b505050565b600082821c905092915050565b60006119fc600019846008026119de565b1980831691505092915050565b6000611a1583836119eb565b9150826002028217905092915050565b611a2e82610e25565b67ffffffffffffffff811115611a4757611a466111b1565b5b611a51825461146e565b611a5c828285611998565b600060209050601f831160018114611a8f5760008415611a7d578287015190505b611a878582611a09565b865550611aef565b601f198416611a9d86611879565b60005b82811015611ac557848901518255600182019150602085019450602081019050611aa0565b86831015611ae25784890151611ade601f8916826119eb565b8355505b6001600288020188555050505b50505050505056fea264697066735822122022f8e80cdca50f4b50ac5b3034064f076065e39ff2acc5b292b3d6e8a53c2a0d64736f6c63430008180033",
  "linkReferences": {},
  "deployedLinkReferences": {}
}